:100000000C942A000C943F000C943F000C943F0089
:100010000C943F000C943F000C943F000C943F0064
:100020000C943F000C943F000C943F000C943F0054
:100030000C943F000C943F000C943F000C943F0044
:100040000C943F000C943F000C943F000C943F0034
:100050000C943F0011241FBECFE5D8E0DEBFCDBF1A
:1000600010E0A0E6B0E0EEEAF5E002C005900D92E7
:10007000A439B107D9F70E9441000C94D5020C9421
:1000800000000E94BC020E949C02FDCFE7E2F0E06B
:1000900080818064808380818F778083E6E2F0E0D6
:1000A0008081806880838081846080838081826099
:1000B00080838081816080830895E7E2F0E0908111
:1000C0008770907E892B8083E6E2F0E080818064F7
:1000D0008083808184FFFDCFE6E2F0E08081806153
:1000E000808324B135B1822F932F0895683008F0B2
:1000F00084C0413009F03EC08130A9F0813030F039
:100100008230F1F0833009F078C027C0EAE3F0E0F4
:10011000208181E090E002C0880F991F6A95E2F784
:10012000282B20830895E7E3F0E0208181E090E030
:1001300002C0880F991F6A95E2F7282B2083089543
:10014000E4E3F0E0208181E090E002C0880F991F95
:100150006A95E2F7282B20830895E1E3F0E02081FF
:1001600081E090E002C0880F991F6A95E2F7282B82
:1001700020830895442309F040C08130A9F08130E4
:1001800028F08230F9F08330C1F52AC0EAE3F0E0CC
:10019000208181E090E002C0880F991F6A95E2F704
:1001A0008095822380830895E7E3F0E0208181E059
:1001B00090E002C0880F991F6A95E2F7809582232C
:1001C00080830895E4E3F0E0208181E090E002C0C4
:1001D000880F991F6A95E2F780958223808308959E
:1001E000E1E3F0E0208181E090E002C0880F991FF8
:1001F0006A95E2F78095822380830895683008F03D
:1002000084C0413009F03EC08130A9F0813030F027
:100210008230F1F0833009F078C027C0EBE3F0E0E2
:10022000208181E090E002C0880F991F6A95E2F773
:10023000282B20830895E8E3F0E0208181E090E01E
:1002400002C0880F991F6A95E2F7282B2083089532
:10025000E5E3F0E0208181E090E002C0880F991F83
:100260006A95E2F7282B20830895E2E3F0E02081ED
:1002700081E090E002C0880F991F6A95E2F7282B71
:1002800020830895442309F040C08130A9F08130D3
:1002900028F08230F9F08330C1F52AC0EBE3F0E0BA
:1002A000208181E090E002C0880F991F6A95E2F7F3
:1002B0008095822380830895E8E3F0E0208181E047
:1002C00090E002C0880F991F6A95E2F7809582231B
:1002D00080830895E5E3F0E0208181E090E002C0B2
:1002E000880F991F6A95E2F780958223808308958D
:1002F000E2E3F0E0208181E090E002C0880F991FE6
:100300006A95E2F78095822380830895683068F5C6
:10031000813081F0813028F08230A9F0833029F5D6
:100320001BC089B390E002C0959587956A95E2F766
:100330008170089586B390E002C0959587956A957F
:10034000E2F78170089583B390E002C09595879598
:100350006A95E2F78170089580B390E002C09595A8
:1003600087956A95E2F78170089580E0089581305D
:1003700049F0813028F0823039F0833041F406C0F2
:100380006ABB089567BB089564BB089561BB089577
:10039000813049F0813028F0823039F0833041F4E7
:1003A00006C06BBB089568BB089565BB089562BB2A
:1003B000089580E280B911B8E6E5F0E080818460BC
:1003C0008083089584EA86BFE6E5F0E08081882393
:1003D000ECF7089583B984E886BFE6E5F0E0808114
:1003E0008823ECF7089584EC86BFE6E5F0E0808191
:1003F0008823ECF783B1089584E986BF08950F93AD
:100400001F938C01FC01808161810E948601282F4D
:10041000F8019281913029F480E0213051F481E09B
:1004200008C0992311F080E004C080E0222309F481
:1004300081E01F910F910895FC018081618140E06E
:100440000E94FE000895FC018081618141E00E94CC
:10045000FE000895FC018081618141E00E947600E8
:1004600008950F931F93082F0E94E2018EE40E94CB
:10047000EA01102F1860812F0E94EA01802F8C6002
:100480000E94EA01812F0E94EA010E94FC011F9153
:100490000F9108951F93182F807F81600E94310271
:1004A0001295107F812F81600E9431021F91089563
:1004B0001F93CF93DF93EC018881882351F010E0E4
:1004C0000E944A021F5FFE01E10FF11D8081882317
:1004D000B9F7DF91CF911F9108951F93182F807F57
:1004E0000E943102812F8295807F0E9431021F91EC
:1004F000089581E00E946D020895882319F4862FE3
:10050000805806C0813011F080E002C0862F8054F0
:100510000E946D0208950E94D90182E00E946D023E
:1005200088E20E946D028CE00E946D0286E00E94CB
:100530006D020E94790208950F931F9380E00E943C
:100540005D008C0181E00E945D000152134068F063
:1005500082E990E00E94230281E060E00E947D0237
:1005600080E690E00E94580204C082E990E00E9478
:100570001C021F910F9108950E9446000E948B0259
:1005800082E990E00E942A0280E060E00E947D0201
:1005900081E790E00E94580281E060E00E947D02C5
:0E05A00082E890E00E9458020895F894FFCF80
:1005AE004F56455220564F4C54414745212020204E
:1005BE0000536F6C617220436F6E74726F6C6C655A
:1005CE00720053797374656D2052656164792E2EB5
:0405DE002E000205E4
:00000001FF
