:100000000C942A000C943F000C943F000C943F0089
:100010000C943F000C943F000C943F000C943F0064
:100020000C943F000C943F000C943F000C943F0054
:100030000C943F000C943F000C943F000C943F0044
:100040000C943F000C943F000C943F000C943F0034
:100050000C943F0011241FBECFE5D8E0DEBFCDBF1A
:1000600010E0A0E6B0E0ECEBF1E102C005900D92EB
:10007000A239B107D9F70E9441000C94DC080C9416
:100080000000DF93CF93CDB7DEB70E944C050E94EE
:100090006B05FDCFDF93CF93CDB7DEB727970FB6B4
:1000A000F894DEBF0FBECDBF89836A834B838A81FC
:1000B000883008F0EAC08B81813009F06FC08981F7
:1000C000282F30E03F832E838E819F8181309105E0
:1000D00049F12E813F81223031052CF48E819F81A0
:1000E000009761F0D2C02E813F812230310571F13D
:1000F0008E819F8183309105E9F1C7C0AAE3B0E00A
:10010000EAE3F0E08081482F8A81282F30E081E007
:1001100090E0022E02C0880F991F0A94E2F7842B08
:100120008C93B3C0A7E3B0E0E7E3F0E08081482F11
:100130008A81282F30E081E090E0022E02C0880FF3
:10014000991F0A94E2F7842B8C939FC0A4E3B0E03C
:10015000E4E3F0E08081482F8A81282F30E081E0BD
:1001600090E0022E02C0880F991F0A94E2F7842BB8
:100170008C938BC0A1E3B0E0E1E3F0E08081482FF5
:100180008A81282F30E081E090E0022E02C0880FA3
:10019000991F0A94E2F7842B8C9377C08B81882374
:1001A00009F073C08981282F30E03D832C838C8136
:1001B0009D818130910559F12C813D81223031059D
:1001C0002CF48C819D81009769F05FC02C813D816A
:1001D0002230310589F18C819D818330910509F4AC
:1001E00040C053C0AAE3B0E0EAE3F0E08081482FCA
:1001F0008A81282F30E081E090E0022E02C0880F33
:10020000991F0A94E2F7809584238C933EC0A7E35C
:10021000B0E0E7E3F0E08081482F8A81282F30E0CA
:1002200081E090E0022E02C0880F991F0A94E2F745
:10023000809584238C9329C0A4E3B0E0E4E3F0E04C
:100240008081482F8A81282F30E081E090E0022EC3
:1002500002C0880F991F0A94E2F7809584238C933B
:1002600014C0A1E3B0E0E1E3F0E08081482F8A818F
:10027000282F30E081E090E0022E02C0880F991F05
:100280000A94E2F7809584238C9327960FB6F8940E
:10029000DEBF0FBECDBFCF91DF910895DF93CF9327
:1002A000CDB7DEB727970FB6F894DEBF0FBECDBF30
:1002B00089836A834B838A81883008F0EAC08B8106
:1002C000813009F06FC08981282F30E03F832E8371
:1002D0008E819F818130910549F12E813F812230AD
:1002E00031052CF48E819F81009761F0D2C02E8160
:1002F0003F812230310571F18E819F8183309105DC
:10030000E9F1C7C0ABE3B0E0EBE3F0E08081482F58
:100310008A81282F30E081E090E0022E02C0880F11
:10032000991F0A94E2F7842B8C93B3C0A8E3B0E042
:10033000E8E3F0E08081482F8A81282F30E081E0D7
:1003400090E0022E02C0880F991F0A94E2F7842BD6
:100350008C939FC0A5E3B0E0E5E3F0E08081482FF7
:100360008A81282F30E081E090E0022E02C0880FC1
:10037000991F0A94E2F7842B8C938BC0A2E3B0E020
:10038000E2E3F0E08081482F8A81282F30E081E08D
:1003900090E0022E02C0880F991F0A94E2F7842B86
:1003A0008C9377C08B81882309F073C08981282FB3
:1003B00030E03D832C838C819D818130910559F102
:1003C0002C813D81223031052CF48C819D81009758
:1003D00069F05FC02C813D812230310589F18C812B
:1003E0009D818330910509F440C053C0ABE3B0E078
:1003F000EBE3F0E08081482F8A81282F30E081E014
:1004000090E0022E02C0880F991F0A94E2F78095AF
:1004100084238C933EC0A8E3B0E0E8E3F0E0808161
:10042000482F8A81282F30E081E090E0022E02C020
:10043000880F991F0A94E2F7809584238C9329C032
:10044000A5E3B0E0E5E3F0E08081482F8A81282F22
:1004500030E081E090E0022E02C0880F991F0A94DC
:10046000E2F7809584238C9314C0A2E3B0E0E2E32A
:10047000F0E08081482F8A81282F30E081E090E0F1
:10048000022E02C0880F991F0A94E2F780958423F8
:100490008C9327960FB6F894DEBF0FBECDBFCF91D9
:1004A000DF910895DF93CF9300D000D00F92CDB7A6
:1004B000DEB78A836B8319828B81883008F067C02E
:1004C0008A81282F30E03D832C834C815D8141302F
:1004D000510541F18C819D818230910534F42C814C
:1004E0003D812115310561F052C04C815D81423062
:1004F000510551F18C819D8183309105B9F147C03F
:10050000E9E3F0E08081282F30E08B81882F90E0B4
:10051000A90102C0559547958A95E2F7CA018170F5
:10052000898335C0E6E3F0E08081282F30E08B81BD
:10053000882F90E0A90102C0559547958A95E2F76A
:10054000CA018170898323C0E3E3F0E08081282F12
:1005500030E08B81882F90E0A90102C05595479526
:100560008A95E2F7CA018170898311C0E0E3F0E067
:100570008081282F30E08B81882F90E0A90102C074
:10058000559547958A95E2F7CA01817089838981DB
:100590000F900F900F900F900F90CF91DF910895D3
:1005A000DF93CF9300D000D0CDB7DEB789836A83C5
:1005B0008981282F30E03C832B838B819C81813083
:1005C0009105D1F02B813C81223031052CF48B81B7
:1005D0009C81009761F01EC02B813C812230310547
:1005E00081F08B819C818330910581F013C0EAE317
:1005F000F0E08A8180830EC0E7E3F0E08A818083A7
:1006000009C0E4E3F0E08A81808304C0E1E3F0E024
:100610008A8180830F900F900F900F90CF91DF9180
:100620000895DF93CF9300D000D0CDB7DEB7898394
:100630006A838981282F30E03C832B838B819C81C6
:1006400081309105D1F02B813C81223031052CF491
:100650008B819C81009761F01EC02B813C812230F0
:10066000310581F08B819C818330910581F013C02D
:10067000EBE3F0E08A8180830EC0E8E3F0E08A815A
:10068000808309C0E5E3F0E08A81808304C0E2E36F
:10069000F0E08A8180830F900F900F900F90CF91A0
:1006A000DF910895DF93CF93CDB7DEB7A7E2B0E037
:1006B000E7E2F0E0808180648C93A7E2B0E0E7E2BB
:1006C000F0E080818F778C93A6E2B0E0E6E2F0E084
:1006D000808180688C93A6E2B0E0E6E2F0E0808161
:1006E00084608C93A6E2B0E0E6E2F0E08081826074
:1006F0008C93A6E2B0E0E6E2F0E0808181608C932A
:10070000CF91DF910895DF93CF930F92CDB7DEB7EE
:100710008983A7E2B0E0E7E2F0E08081982F907E45
:1007200089818770892B8C93A6E2B0E0E6E2F0E045
:10073000808180648C93E6E2F0E0808182958F7006
:10074000882F90E0817090700097A9F3A6E2B0E046
:10075000E6E2F0E0808180618C93E4E2F0E0808169
:1007600091810F90CF91DF910895DF93CF93CDB713
:10077000DEB7E0E2F0E080E28083E1E2F0E01082C8
:10078000A6E5B0E0E6E5F0E0808184608C93CF914F
:10079000DF910895DF93CF93CDB7DEB7E6E5F0E0C4
:1007A00084EA8083E6E5F0E080818823DCF7CF915E
:1007B000DF910895DF93CF930F92CDB7DEB7898392
:1007C000E3E2F0E089818083E6E5F0E084E880837D
:1007D000E6E5F0E080818823DCF70F90CF91DF9190
:1007E0000895DF93CF93CDB7DEB7E6E5F0E084EC74
:1007F0008083E6E5F0E080818823DCF7E3E2F0E047
:100800008081CF91DF910895DF93CF93CDB7DEB78D
:10081000E6E5F0E084E98083CF91DF910895DF93EE
:10082000CF930F92CDB7DEB789830E94CA0380E4CD
:100830000E94DA03898188600E94DA0389818C60D2
:100840000E94DA03898188600E94DA030E9404040E
:100850000F90CF91DF910895DF93CF9300D00F9247
:10086000CDB7DEB78B838B81807F8A838B81882F86
:1008700090E082959295907F9827807F9827898332
:100880008A810E940F0489810E940F040F900F90AB
:100890000F90CF91DF910895DF93CF9300D00F9207
:1008A000CDB7DEB78B838B81807F81608A838B811C
:1008B000882F90E082959295907F9827807F982747
:1008C000816089838A810E940F0489810E940F04BC
:1008D0000F900F900F90CF91DF910895DF93CF93FA
:1008E000CDB7DEB70E94B50383E30E942C0482E3F8
:1008F0000E942C0488E20E942C048CE00E942C04AC
:1009000086E00E942C040E94D004CF91DF910895CC
:10091000DF93CF9300D00F92CDB7DEB79B838A834E
:1009200019820EC08981282F30E08A819B81FC01C9
:10093000E20FF31F80810E944C0489818F5F8983BD
:100940008981282F30E08A819B81FC01E20FF31F0F
:100950008081882339F70F900F900F90CF91DF910E
:100960000895DF93CF9300D00F92CDB7DEB78A837F
:100970006B8319828A81882321F48B818058898333
:1009800006C08A81813019F48B81805489838981E2
:100990000E942C040F900F900F90CF91DF9108953B
:1009A000DF93CF93CDB7DEB781E00E942C04CF91C7
:1009B000DF910895DF93CF9300D000D0CDB7DEB79D
:1009C0009C838B83EB81FC818081EB81FC81918115
:1009D000692F0E9452028A831982EB81FC818281F5
:1009E000813031F48A81813069F481E089830AC0E1
:1009F000EB81FC818281882329F48A81882311F488
:100A000081E0898389810F900F900F900F90CF9193
:100A1000DF910895DF93CF9300D0CDB7DEB79A83EF
:100A20008983E981FA818081E981FA819181692F45
:100A300041E00E944A000F900F90CF91DF910895FE
:100A4000DF93CF9300D0CDB7DEB79A838983E98156
:100A5000FA818081E981FA819181692F41E00E94C8
:100A60004E010F900F90CF91DF910895DF93CF93B8
:100A700000D0CDB7DEB79A838983E981FA8180817E
:100A8000E981FA819181692F40E00E944E010F9027
:100A90000F90CF91DF910895DF93CF93CDB7DEB75D
:100AA0000E9452030E946E0480E690E00E940A05B4
:100AB00080E060E00E94B10482E690E00E94880439
:100AC00081E060E00E94B10483E790E00E94880426
:100AD000CF91DF910895DF93CF93CDB7DEB76397C2
:100AE0000FB6F894DEBF0FBECDBF80E00E94830337
:100AF0009B838A838A819B81CC01A0E0B0E024E6BD
:100B000030E040E050E0BC01CD010E94C305DC01B3
:100B1000CB012FEF33E040E050E0BC01CD010E945B
:100B2000E205DA01C901898381E060E00E94B10435
:100B30009E012C5F3F4F8981482F50E000D000D0AC
:100B400000D0EDB7FEB731963183208383E890E083
:100B500093838283558344830E9404068DB79EB796
:100B600006960FB6F8949EBF0FBE8DBFCE010496B9
:100B70000E94880463960FB6F894DEBF0FBECDBF07
:100B8000CF91DF910895629FD001739FF001829F02
:100B9000E00DF11D649FE00DF11D929FF00D839F0C
:100BA000F00D749FF00D659FF00D9927729FB00DA9
:100BB000E11DF91F639FB00DE11DF91FBD01CF01BC
:100BC00011240895A1E21A2EAA1BBB1BFD010DC022
:100BD000AA1FBB1FEE1FFF1FA217B307E407F507ED
:100BE00020F0A21BB30BE40BF50B661F771F881FC9
:100BF000991F1A9469F760957095809590959B015F
:100C0000AC01BD01CF010895AEE0B0E0EAE0F6E04E
:100C10000C94B3080D891E8986E08C831A8309839E
:100C20008FEF9FE79E838D839E01275E3F4FCE010E
:100C300001966F89788DA9010E9428062F81388539
:100C4000020F131FF80110822E96E4E00C94CF08D7
:100C5000ABE0B0E0EEE2F6E00C94A5083C012B011D
:100C60005A01FC0117821682838181FD03C06FEF58
:100C70007FEFC6C19AE0892E1E010894211C311C09
:100C8000F3012381F20123FD859123FF81912F013F
:100C9000882309F4B2C1853239F423FD859123FFFD
:100CA00081912F01853229F490E0B3010E941B0845
:100CB000E7CF982FFF24EE249924FFE1FF15D0F011
:100CC0009B3269F09C3228F4903259F0933291F4BF
:100CD0000EC09D3249F0903369F441E024C052E0E7
:100CE000F52A84E0F82A28C098E0F92A25C0E0E136
:100CF000FE2A22C0F7FC29C0892F80538A3070F465
:100D0000F6FE05C0989C902C1124980E15C0E89C06
:100D1000E02C1124E80EF0E2FF2A0EC09E3229F4E6
:100D2000F6FC6BC140E4F42A07C09C3619F450E885
:100D3000F52A02C0983649F4F20123FD959123FF6C
:100D400091912F01992309F0B8CF892F85548330D1
:100D500018F08052833038F444E050E0A40EB51E01
:100D60005FE359830FC0933631F0933779F09335B1
:100D700009F056C020C0F5018081898342E050E02F
:100D8000A40EB51E610101E010E012C0F501C080A3
:100D9000D180F6FC03C06FEF7FEF02C0692D70E0D9
:100DA00042E050E0A40EB51EC6010E9410088C015E
:100DB0005FE7F52214C0F501C080D180F6FC03C0C6
:100DC0006FEF7FEF02C0692D70E042E050E0A40EAB
:100DD000B51EC6010E9405088C0150E8F52AF3FEF5
:100DE00007C01AC080E290E0B3010E941B08EA9499
:100DF0008E2D90E008171907A8F30EC0F601F7FC36
:100E00008591F7FE81916F0190E0B3010E941B086C
:100E1000E110EA94015010400115110579F7EAC07C
:100E2000943611F0993669F5F7FE08C0F501208176
:100E300031814281538184E090E00AC0F5018081D4
:100E400091819C01442737FD4095542F82E090E02A
:100E5000A80EB91E9FE6F92257FF09C0509540958C
:100E6000309521953F4F4F4F5F4FE0E8FE2ACA0172
:100E7000B901A1012AE030E00E944708D82ED2181B
:100E800040C0953729F41F2D1F7E2AE030E01DC099
:100E90001F2D197F9F3661F0903720F4983509F0A7
:100EA000ACC00FC0903739F0983709F0A6C004C025
:100EB00028E030E00AC0106114FD146020E130E049
:100EC00004C014FD166020E132E017FF08C0F501F0
:100ED000608171818281938144E050E008C0F50116
:100EE00080819181BC0180E090E042E050E0A40E5E
:100EF000B51EA1010E944708D82ED2188FE7F82E00
:100F0000F122F6FE0BC05EEFF522D91438F4F4FEA0
:100F100007C0F2FC05C08FEEF82202C01D2D01C0F3
:100F2000192DF4FE0DC0FE01ED0DF11D8081803301
:100F300019F499EEF92208C01F5FF2FE05C003C044
:100F40008F2D867809F01F5F0F2DF3FC14C0F0FE83
:100F50000FC01E1510F09D2C0BC09D2C9E0C911ADD
:100F60001E2D06C080E290E0B3010E941B081F5FA7
:100F70001E15C0F304C01E1510F4E11A01C0EE24C2
:100F800004FF0FC080E390E0B3010E941B0802FF42
:100F90001DC001FD03C088E790E00EC088E590E029
:100FA0000BC0802F867891F001FF02C08BE201C058
:100FB00080E2F7FC8DE290E0B3010E941B0806C0BE
:100FC00080E390E0B3010E941B089A94D914C0F307
:100FD000DA94F101ED0DF11D808190E0B3010E94E2
:100FE0001B08DD20A9F706C080E290E0B3010E9453
:100FF0001B08EA94EE20C1F743CEF30166817781A6
:10100000CB012B96E2E10C94C108FC0105906150E4
:1010100070400110D8F7809590958E0F9F1F08950E
:10102000FC016150704001900110D8F780959095B7
:101030008E0F9F1F08950F931F93CF93DF938C0103
:10104000EB018B8181FF1BC082FF0DC02E813F8190
:101050008C819D812817390764F4E881F981019317
:10106000F983E88306C0E885F985802F0995892BE7
:1010700031F48E819F8101969F838E8302C00FEF92
:101080001FEFC801DF91CF911F910F910895FA01D1
:10109000AA27283051F1203181F1E8946F936E7FB7
:1010A0006E5F7F4F8F4F9F4FAF4FB1E03ED0B4E0A8
:1010B0003CD0670F781F891F9A1FA11D680F791FE9
:1010C0008A1F911DA11D6A0F711D811D911DA11DFA
:1010D00020D009F468943F912AE0269F112430190A
:1010E000305D3193DEF6CF010895462F4770405DA5
:1010F0004193B3E00FD0C9F7F6CF462F4F70405D54
:101100004A3318F0495D31FD4052419302D0A9F7AE
:10111000EACFB4E0A6959795879577956795BA95A8
:10112000C9F700976105710508959B01AC010A2E6E
:1011300006945795479537952795BA95C9F7620F45
:10114000731F841F951FA01D08952F923F924F92E9
:101150005F926F927F928F929F92AF92BF92CF9247
:10116000DF92EF92FF920F931F93CF93DF93CDB750
:10117000DEB7CA1BDB0B0FB6F894DEBF0FBECDBFC8
:1011800009942A88398848885F846E847D848C8499
:101190009B84AA84B984C884DF80EE80FD800C81A2
:1011A0001B81AA81B981CE0FD11D0FB6F894DEBF85
:0C11B0000FBECDBFED010895F894FFCFF5
:1011BC000205536F6C617220436F6E74726F6C6CAE
:1011CC0065720053797374656D2052656164792E74
:1011DC002E2E0052313A2025642525202020202057
:0211EC002000E1
:00000001FF
